:020000040800F2
:100000005099002061020008913B0008ED2E000885
:100010003D3B00082F090008818000080000000017
:10002000000000000000000000000000A101000826
:10003000490A000800000000FD010008A13B00087B
:100040007B0200087B0200087B0200087B0200089C
:100050007B0200087B0200084B0A0008510A0008D6
:100060007B0200087B020008570A00087B02000898
:100070007B0200087B0200087B0200087B0200086C
:100080007B0200087B0200087B0200087B0200085C
:10009000850900087B0200087B0200087B0200083B
:1000A0007B020008E93C00087B0200087B02000894
:1000B0007B0200087B0200087B0200087B0200082C
:1000C0007B0200087B0200087B0200087B0200081C
:1000D0007B020008695400083955000815560008CD
:1000E0007B0200087B0200087B0200087B020008FC
:1000F0007B0200087B0200087B0200087B020008EC
:100100007B0200087B0200087B0200087B020008DB
:10011000B551000891520008F53C00087B02000828
:100120007B0200087B0200087B0200087B020008BB
:100130007B0200087B0200087B0200087B020008AB
:100140007B0200087B0200087B020008953B000848
:100150007B0200087B0200087B020008F1560008C1
:100160007B0200087B0200087B0200087B0200087B
:100170007B0200087B0200087B02000800000000F0
:100180007B0200087B020008DFF810D000F092FB31
:1001900000480047E9A20008AFF300805099002012
:1001A0002C4B19680868B0E8F04F80F30988BFF35A
:1001B0006F8F4FF0000080F311887047000000003F
:1001C00008480068006880F308884FF0000080F35A
:1001D000148862B661B6BFF34F8FBFF36F8F00DF35
:1001E00000BF00BF08ED00E0DFF80C00016841F43B
:1001F00070010160704700BF88ED00E0EFF30980F7
:10020000BFF36F8F134B1A681EF0100F08BF20ED5D
:10021000108A20E9F04F106009B44FF0500080F3CD
:100220001188BFF34F8FBFF36F8F0BF01DFB4FF0A3
:10023000000080F3118809BC19680868B0E8F04F25
:100240001EF0100F08BFB0EC108A80F30988BFF3CE
:100250006F8F704768000020EFF305807047000043
:100260000648804706480047FEE7FEE7FEE7FEE750
:10027000FEE7FEE7FEE7FEE7FEE7FEE7D93C000803
:10028000890100082DE9F05F0546002092469B4653
:1002900088460646814640241BE02846414647469C
:1002A000224600F038FA53465A46C01A914110D3FC
:1002B00011461846224600F01FFA2D1A67EB010876
:1002C0004F4622460120002100F016FA17EB0009E4
:1002D0004E41201EA4F10104DFDC484631462A4687
:1002E0004346BDE8F09F40EA01039B0703D009E0C5
:1002F00008C9121F08C0042AFAD203E011F8013B12
:1003000000F8013B521EF9D27047D2B201E000F86A
:10031000012B491EFBD270470022F6E710B51346A9
:100320000A4604461946FFF7F0FF204610BD2DE9A6
:10033000FE4F804681EA0300C00F0C46009021F07A
:10034000004123F00045B8EB0200A94105D2404628
:10035000214690461C460B46024623F000401043BF
:1003600047D0270DC7F30A00C3F30A510290401A81
:10037000019040286BDAC3F3130040F4801B00980F
:10038000924620B10023D2EB030A63EB0B0B0198DA
:100390005946C0F14002504600F0AEF906460D46FF
:1003A00050465946019A00F0C6F910EB0800614129
:1003B000002487EA115284EAE7731A4340D0009A76
:1003C00062B3019A012A4FEA075215DC001B61EB68
:1003D00002014FF0004202EA0752CDE90042001C40
:1003E00041F5801132462B4600F0FDF903B0BDE81F
:1003F000F08F40462146F9E7001B61EB0201001C2B
:1004000041F5801300185B412018A2F5001747EB57
:10041000030140EAD570B6196D4111E06D084FEA4D
:10042000360645EAC0754FEA0752001B61EB020130
:10043000001C41F5801149084FEA30000019514174
:1004400032462B4603B0BDE8F04F00F0BDB900982E
:10045000012240000023D0EB020263EBE07300981E
:1004600021464FEAE074B8EB000061EB0401E9E7D4
:1004700083F000435BE781F0004158E72DE9FE4F30
:1004800081EA030404F0004421F0004100944FF09D
:10049000000B23F0004350EA01045ED052EA03044B
:1004A0005BD0C3F30A54C1F30A552C44A4F2F334CD
:1004B0000194A0FB0254C1F3130141F48011C3F372
:1004C000130343F4801301FB024400FB034E840A30
:1004D000970A44EA815447EA8357A4FB07680295C8
:1004E0008D0A05FB07854FEA932C04FB0C54270566
:1004F000029D4FEA065847EA1637B5EB08056EEB42
:10050000070C870E920E47EA811742EA8312A7FB77
:100510000201B6EB0B0164EB00042B0D43EA0C3334
:100520005E1844EB1C50DA465146E7FB0201C5F366
:1005300013044FEA0B3343EA14534FEA0432019C8D
:1005400043EA0603A4F10C040294009CCDE900B434
:1005500000F049F903B0BDE8F08F00200146F9E74B
:100560002DE9F04D81EA030404F0004B21F0004531
:1005700014464FF0000A23F0004150EA050220D053
:1005800054EA01021DD0C5F30A570246C5F313030E
:10059000C1F31300C1F30A5640F4801543F48013ED
:1005A000A7EB0608101BD64608F2FD3873EB0500D2
:1005B00002D308F1010801E092185B41B8F1000F85
:1005C00003DA00200146BDE8F08D00204FF48011D1
:1005D000064684460EE0171B73EB050705D3121B76
:1005E00063EB050306434CEA010C49084FEA30006F
:1005F00092185B4150EA0107EDD152EA030012D094
:1006000082EA040083EA0501084305D0101BAB41D0
:1006100006D20122002306E000224FF0004302E050
:100620006FF0010253101AEB06004CEB085110EB6F
:100630000A0041EB0B01BDE8F04D00F0C5B800F039
:10064000004230F000400AD0C10D01F56071C0F3E6
:10065000160042EA0151C2084007114370470020CA
:100660000146704730B5041E71F1000404DB4FF001
:100670000044404264EB0101141E73F1000405DBE9
:100680001C464FF00043524263EB0403994208BFFB
:10069000904230BD01F0004330B421F0004150EAF7
:1006A000010206D00A0DA2F56072C1F31301002AFF
:1006B00002DC30BC00207047440F44EAC104C10092
:1006C000E01830BC00EBC25000F047B830B50B4624
:1006D000014600202022012409E021FA02F59D4272
:1006E00005D303FA02F5491B04FA02F52844151E46
:1006F000A2F10102F1DC30BD202A04DB203A00FA2D
:1007000002F1002070479140C2F1200320FA03F368
:10071000194390407047202A04DB203A21FA02F066
:100720000021704721FA02F3D040C2F1200291402B
:10073000084319467047202A06DBCB17203A41FAB6
:1007400002F043EAE07306E041FA02F3D040C2F15E
:10075000200291400843194670470029A8BF7047FE
:10076000401C490008BF20F00100704710B4B0FAE7
:1007700080FC00FA0CF050EA010404BF10BC704782
:1007800049B1CCF1200421FA04F411FA0CF118BF9C
:10079000012121430843A3EB0C01CB1D4FEA00616B
:1007A0004FEA102042BF002010BC704700EBC3503E
:1007B00010440029A4BF10BC7047401C490008BF6A
:1007C00020F0010010BC704710B5141E73F1000436
:1007D00008DA401C41F1000192185B411A4301D133
:1007E00020F0010010BD2DE9F04D92469B4611B15D
:1007F000B1FA81F202E0B0FA80F220329046FFF7BF
:100800007BFF04460F4640EA0A0041EA0B015346CB
:100810005A46084313D0114653EA010019D0C8F1D3
:1008200040025046FFF777FF05460E4650465946B0
:100830004246FFF761FF084305D0012004E020464F
:100840003946BDE8F08D0020054346EAE0762C43AA
:1008500037430A986305E40AA0EB08000022FD0A6A
:1008600044EA47540A3002D500200146E9E7010571
:1008700010196941DDE9084500196941BDE8F04DED
:10088000A2E7C1F30A52C1F3130140F2FF3341F46E
:1008900080119A4202DA00200146704740F2334349
:1008A0009A42A2F2334202DC5242FFF734BFFFF712
:1008B00023BF0000064C074D06E0E06840F001034E
:1008C00094E8070098471034AC42F6D3FFF760FC79
:1008D000D83C0108F83C010870B58C1810F8015B91
:1008E00015F0070301D110F8013B2A1106D110F8C9
:1008F000012B03E010F8016B01F8016B5B1EF9D1CD
:100900002B0705D40023521E0DD401F8013BFAE752
:1009100010F8013BCB1A921C03E013F8015B01F8BD
:10092000015B521EF9D5A142D8D3002070BDFEE76D
:1009300000B58BB000200121CDE90601059040F6FD
:100940001C12CDE900020290039004900E20CDE924
:10095000081069460A4800F0FDF808B100F07EF87A
:100960000221074800F07CF808B100F077F804484D
:1009700000F0E0FB002801D000F070F80BB000BDE3
:10098000DC030020014800F0FCB90000DC0300207B
:100990000C4C0D4D0D4F00260A200AF03FFE20881A
:1009A000C82802D22088401C20802888401C80B2A1
:1009B00028803228F0D12E800421384600F03CFDFA
:1009C000EAE700004200002044000020000402404A
:1009D00070B504460021084604EB8102491CC2F8A8
:1009E00090051029F8D300224FF48065A118521CFD
:1009F00081F81C01AA42F9D3207060700121A17016
:100A0000C4F8D00521764022A271607684F81C05D6
:100A100084F81D1584F81F0584F81E05090204F1E9
:100A20001C00FFF779FC294604F58E70FFF774FC73
:100A3000122104F22650FFF76FFC3E2104F5A76057
:100A4000FFF76AFC002070BD7047012000F0F0BB8A
:100A5000022000F0EDBB102000F0EABB72B6FEE70A
:100A600090F82020012A07D0022A05D0416A41F4DB
:100A70008021416201207047006842690A43426157
:100A800000207047F0B590F820500468A468012D4C
:100A900005D0022D03D0416A41F4802157E014F0C3
:100AA000406F01D1E5004FD5C4F301640125A54095
:100AB0001D608D684FF4C0739DB1CE6835434E689C
:100AC00045EAC605066803EB0417F5514FF4C275F5
:100AD000076805EB04150E697E51097D012905D0D3
:100AE00009E00E88CD6845EA4655EBE701684E59A6
:100AF00046F480764E511179D579567941EA0561EF
:100B000095792D0445EA062529434FF4C6760568F4
:100B100006EB0416A9511178D57841EA056195785C
:100B200052782D0445EA022211434FF4C47502683D
:100B300005EB04155151006803EB0411425842F0D3
:100B4000010242500020F0BD416A41F400114162AF
:100B50000120F0BD10B590F82020012A07D0022A0C
:100B600005D0416A41F480214162012010BD3B481B
:100B7000D0F8002242F00102C0F80022D0F8002292
:100B800022F47C52C0F80022D0F800224B6A42EADC
:100B90000322C0F800220A7D02F01F0301229A40BE
:100BA000D0F81C329343C0F81C32CB69B3B9D0F8EB
:100BB0000C329343C0F80C328C894B6864F31F43AA
:100BC0004C6900EBC404C4F840320C890B6864F330
:100BD0001F434C6900EBC404C4F84432CB69012BB9
:100BE00016D1D0F80C321343C0F80C320C884B6885
:100BF00064F31F434C6900EBC404C4F840320C8911
:100C0000CB6864F31F434C6900EBC404C4F844325E
:100C10008B69002BD0F804320ED01343C0F8043295
:100C20000B69002BD0F8143208D01343C0F81432EB
:100C3000096A012904D008E09343EFE79343F5E7FD
:100C4000D0F81C121143C0F81C12D0F8001221F089
:100C50000101C0F80012002010BD00000064004037
:100C6000704770B590F82040012C05D0022C03D0BD
:100C7000416A41F4802128E0046809B32469A4078B
:100C800020D04FF4D874056804EB01142D5915F0E9
:100C90000405956005682D591AD0ED085560056862
:100CA0002C5904F00204D4604FF4DA74056804EBA4
:100CB00001142E5906F00F06082E0CD308250DE05E
:100CC000E468DCE7416A41F400114162012070BD33
:100CD0006D0D1560E3E72D5905F00F0515610568E9
:100CE0002D59C5F30725956105682C59240C5461CD
:100CF0004FF4DC72046802EB0112A4581C70046803
:100D0000A458240A5C700468A458240C9C700468DD
:100D1000A258120EDA704FF4DE72046802EB011270
:100D2000A4581C710468A458240A5C710468A4586F
:100D3000240C9C710468A258120EDA71006829B163
:100D4000016941F020010161002070BDC16841F0DE
:100D50002001C160F8E70246002092F82010012926
:100D600001D002290CD111688A68520100D50120F6
:100D70008A68120100D5401C8968C90000D5401C52
:100D800070472DE9F05F0546006800244669D0F8F9
:100D900004908768D0F80CB0D0F810A0D0F8188074
:100DA000F10748D0F90714D001218160B80703D5B5
:100DB000284600F0ECF90CE0780702D54FF4006407
:100DC00007E0380702D54FF4805402E0284600F0CF
:100DD000DDF9F80516D529684FF480708860B805EC
:100DE00003D5284600F0D5F90CE0780502D544F487
:100DF000005407E0380502D544F4804402E0284658
:100E000000F0C6F9F80316D529684FF480308860E1
:100E1000B80303D5284600F0BEF90CE0780302D5EC
:100E200044F4004407E0380302D544F4803402E07F
:100E3000284600F0AFF9300707D55FEACB6004D54C
:100E40002968102044F40074C86070074FF0080748
:100E500007D55FEA0B7004D52868C760284600F004
:100E600059F9B00706D52868C068800702D028461F
:100E700000F052F9700607D55FEACA6004D5296808
:100E8000102044F480640861B00607D55FEA0A7058
:100E900004D528680761284600F048F9F00606D511
:100EA00028680069800702D0284600F040F9B003A6
:100EB00008D55FEAC96005D5296810204860284632
:100EC00000F036F9F00307D55FEA097004D5286809
:100ED0004760284600F060F9300446D55FEA497063
:100EE00040D5F00504D55FEAC87001D044F0010494
:100EF000B00504D55FEA887001D544F0020470059E
:100F000004D55FEA487001D544F00404300529D5C2
:100F100018F0700F26D008F07000402815D006DCBD
:100F2000102809D020280AD0302816D10AE05028ED
:100F30000ED0602811D10EE044F008040DE044F01A
:100F400010040AE044F0200407E044F0400404E008
:100F500044F0800401E044F480742868816921F041
:100F600070018161296804204860002C05D0686AFE
:100F7000204368622846FFF773FEBDE8F09F70B516
:100F8000040003D094F8200010B104E0012070BDEB
:100F9000204600F081F82068016841F001010160FD
:100FA00000F058FA0546052604E000F053FA401B0D
:100FB0000A2811D820684068C007F6D02068016868
:100FC00021F00201016000F045FA05460BE000F057
:100FD00041FA401B0A2806D9606A40F4003060627A
:100FE00084F82060D2E7206840688007EFD4207E34
:100FF0000128206801683DD021F080010160607EF9
:1010000001282068016838D021F040010160A07EED
:1010100001282068016833D021F020010160E07EC2
:101020000128206801682ED041F010010160207F66
:1010300001282068016829D021F008010160607F43
:1010400001282068016824D021F004010160D4E95E
:1010500002010843D4E90412114308436168491EA0
:1010600008432168C86100206062012084F82000E4
:10107000002070BD41F08001C0E741F04001C5E7AC
:1010800041F02001CAE721F01001CFE741F008014B
:10109000D4E741F00401D9E710B586B00446142125
:1010A0006846FFF739F918492068884229D117485E
:1010B0000021026842F000720260006800F00070D7
:1010C000059012481038026842F00202026000687F
:1010D00000F0020005904FF4407000900220CDE92E
:1010E000010103200390092004906946084800F09C
:1010F000ABF800220521142000F070FC142000F051
:101100005FFC06B010BD00000064004040380240A3
:101110000004024070470000034910B5884201D125
:1011200008F01EFC10BD0000DC0300207047704773
:101130007047000070B5044690F82000012804D0E4
:10114000606A40F40020606218E0022084F8200009
:101150002068016821F00101016000F07BF905467B
:101160000EE000BF00F076F9401B0A2808D9606A3B
:1011700040F400306062052084F82000012070BD3A
:1011800020684068C007EDD1606270BD704770474D
:1011900070477047704770477047000070B504464D
:1011A00000F058F90546601C02D004480078044459
:1011B00000F050F9401BA042FAD370BD5800002047
:1011C00010B5114A01280CD0022815D0102819D1C9
:1011D0002021104600F030F90CA0BDE8104007F0C7
:1011E000D9BE2021104600F027F90BA007F0D2FE4F
:1011F000BDE8104007F094BC2021104600F01CF917
:1012000008A0EAE710BD0000000802404B45595F06
:101210003320B0B4CFC20D004B45595F3120B0B47C
:10122000CFC20D004B45595F3220B0B4CFC20D0084
:10123000044910B50A68024202D00860FFF7C0FFF7
:1012400010BD0000143C01402DE9F84FDFF8BCA1AF
:101250000022012503264FF00F090AF1040BAAF121
:10126000040E00BF0B6805FA02F42340A34270D1BC
:101270000F7907F00307012F01D0022F16D18768DD
:101280004FEA420806FA08FC27EA0C07D1F80CC01E
:101290000CFA08FC4CEA070CC0F808C04768A743E2
:1012A0000C79C4F3001494403C4344600C79E4434B
:1012B000A4070AD0C4684FEA420C06FA0CF7BC43F4
:1012C0008F6807FA0CF72743C7600C7904F0030412
:1012D000022C12D1D40800EB840CDCF82040570714
:1012E000FF0E09FA07F824EA0804D1F8108008FA7A
:1012F00007F848EA0408CCF8208004684FEA420C5A
:1013000006FA0CF7BC430F7907F0030707FA0CF74E
:10131000274307604C6814F4403F70D03C4C27686A
:1013200047F480472760246822F0030704F48044D0
:101330000094384C07EB040CDCF8084897074FEA98
:10134000177809FA08F7BC43334FB84202D1002797
:1013500024E054E0314FB84201D101271EE0304F64
:10136000B84201D1022719E02E4FB84201D103271C
:1013700014E02D4FB84201D104270FE02B4FB842A3
:1013800001D105270AE02A4FB84201D1062705E01E
:10139000284FB84201D1072700E0082707FA08F7CD
:1013A0002743CCF80878DAF800405746D1F804C053
:1013B0009C435FEACC2C00D51C433C60DBF800402A
:1013C0005F46D1F804C09C435FEA8C2C00D51C43D7
:1013D0003C60DEF800407746D1F804C09C435FEAE9
:1013E0008C3C00D51C433C60084F083F3C68D1F85A
:1013F00004C09C435FEACC3C00D51C433C60521CBB
:10140000102AFFF42FAFBDE8F88F0000083C014020
:101410004438024000300140000002400004024015
:1014200000080240000C024000100240001402407C
:1014300000180240001C0240426921EA02030A40EF
:1014400043EA0241816170470AB181617047090432
:10145000FBE700000148806870470000580000204A
:10146000D0F8DC0305F0EDBBD0F8DC0305F0FABBE7
:10147000006806F07BBA006806F07CBAC1EB011187
:1014800000EB8100002200F81A2F4270C2728272B3
:1014900010467047C1EB011100EB810090F84C0041
:1014A0007047C1EB011100EB8100806B704710B5F4
:1014B000044690F8D403012809D0012084F8D4030D
:1014C000206806F062FA002084F8D40310BD0220E0
:1014D00010BD2DE9FF4F83B00546DDE9117690F888
:1014E000D403DDF8408093468A4601281CD0CAEB1D
:1014F0000A11012305EB810485F8D4334FF000096C
:1015000084F819900698207584F815A084F8267040
:101510000BF07F00A07551462846FFF7AFFF5FEA4A
:101520000B6005D5E37505E0022007B0BDE8F08F3C
:1015300084F81790286806F01DFA012F06D1B8F13B
:10154000010F03D110B9BC2E00D9BC2684F8188035
:10155000B0B22085CDF80080CDE9017028685A46E8
:101560005146069B06F07CFA85F8D493DDE7D0F867
:10157000DC0305F0EDBB2DE9F0030E46DDE906C9FD
:10158000DDE90874C1EB061100EB81010225CA7583
:1015900081F82630BCF1000F0AD081F82A500024CF
:1015A00063B1012B31D0022B28D0032B16D125E0BB
:1015B0004FF0030881F82A804C76F0E7BCF1010F68
:1015C0000CD11AB18A7E012A19D007E0D7B90122BD
:1015D00081F83D2000E0C2B181F82A50C1F82C907A
:1015E0004F6381F84C408C634E7581F84D40827991
:1015F0000068BDE8F003143106F0C2BA12B191F8E8
:101600003C20E8E791F83D20E5E781F82A40E5E74E
:101610002DE9F04106680446304606F0B2F901288B
:1016200077D1206806F068FC002872D0206806F0A8
:1016300063FC800203D521684FF4001048612068E4
:1016400006F05AFCC00203D521684FF480104861AF
:10165000206806F051FC400103D521684FF08060FE
:101660004861206806F048FC800702D52168022006
:101670004861206806F040FC800018D521684FF0D2
:1016800000504861D6F84004C00710D11021304600
:1016900006F04EF9304606F02FF9607A022803D1A1
:1016A0000121206806F004FC2046FFF7DDFE2068DB
:1016B00006F022FCC00102D5204601F08AFB20681A
:1016C00006F01AFC000705D5204600F0C8F821688E
:1016D00008204861206806F00FFC800124D52068AE
:1016E00006F04AFA074600254FF0010815E000BF52
:1016F00005F00F0108FA01F038420DD006EB451055
:10170000D0F80005E9B20004204603D501F028F81E
:1017100002E01CE001F0E2F96D1C6079A842E7D814
:1017200021684FF000704861206806F0E5FBC04377
:10173000C0060CD42068816921F010018161204627
:1017400001F091FB2068816941F010018161BDE8E1
:10175000F081F8B5040005D094F8D503256800267B
:1017600010B106E00120F8BD84F8D463204600F0F3
:1017700029F8032084F8D503B5F1A04F00D1A67154
:10178000206806F085F8207C8DF8000094E80F00B2
:1017900006F01EF8022560B90121206806F0E8FB7A
:1017A00038B9207C8DF8000094E80F0006F018FB93
:1017B00010B184F8D553D5E7012084F8D503002073
:1017C000F8BD000010B586B0044614216846FEF747
:1017D000A3FD2068B0F1A04F2FD119480021026865
:1017E00042F001020260006800F0010005904FF431
:1017F000C05000900220CDE90101032003900A208F
:10180000049069460F48FFF71FFD0D48001D016851
:1018100041F0800101600A481430016841F48041C0
:1018200001600068002200F48040059005214320FB
:1018300000F0D4F8432000F0C3F806B010BD00005B
:101840003038024000000240D0F8DC0305F099BABD
:10185000D0F8DC0305F099BA006806F070BBD0F848
:10186000DC0305F03DBA10B5044690F8D403012816
:101870000DD0012084F8D4030121206806F020F85F
:10188000206806F033F8002084F8D40310BD02204D
:1018900010BD10B5044690F8D403012809D00120EA
:1018A00084F8D403206806F091FB002084F8D40368
:1018B00010BD022010BD000002488168027811446A
:1018C00081607047580000200B4810B5016841F452
:1018D00000710160016841F480610160016841F4B8
:1018E00080710160032000F099F80F2000F006F8E5
:1018F00000F04AF8002010BD003C024030B505461B
:101900001C4887B00024016841F0010101600068B3
:1019100006A900F00100009001A800F02BF900F0EA
:1019200059F915494000B0FBF1F11548134A491E19
:10193000026040F2E732C0E90324C0E90114846187
:1019400000F088FB040012D10D4800F0D9FB040020
:101950000DD1192000F034F8102D07D200222946AD
:10196000192000F03BF80748056000E0012407B0AB
:10197000204630BD4438024040420F000000014084
:10198000DC0400205C0000200C4882B0016841F4B7
:1019900080410160006800F4804000900748001F0B
:1019A000016841F0805101600068002200F0805021
:1019B00000900F21901E02B000F010B84438024091
:1019C000002809DB00F01F0201219140400980003E
:1019D00000F1E020C0F8001170470000F0B40E4B99
:1019E0001B680C46C3F30223C3F10705042D00D97D
:1019F0000425191D072901D2002300E0DB1E012662
:101A000006FA05F1491E214099409E40761E164077
:101A10003143F0BC07F0E2BA0CED00E0064900F0FB
:101A2000070208684FF6FF03184040EA0220034A05
:101A300010430860704700000CED00E00000FA055C
:101A40002DE9F0470E46050065D0DFF81481D8F87F
:101A50000000F7B200F00700B04207D288F800702B
:101A6000D8F8000000F00700B04254D128683D4C7F
:101A7000810712D5400703D5206840F4E05020606C
:101A80002878000703D5206840F460402060206873
:101A9000A96820F0F000084320602878C0072DD006
:101AA000304968680839012812D0022813D0032869
:101AB00011D00968890700292DDA216821F0030176
:101AC00001432160FFF7C6FC814641F2883A0EE0EF
:101AD00009688903EFE709688901ECE7FFF7BAFCB9
:101AE000A0EB0901514502D90320BDE8F087206829
:101AF000696800F00C00B0EB810FEFD1D8F800104E
:101B0000404601F00701B14207D90770006800F0B4
:101B10000700B04201D00120E7E72878400705D54B
:101B20002068E96820F4E050084320602878000726
:101B300006D52068296920F4604040EAC100206091
:101B400000F058F82168084AC1F30311515CC840FD
:101B50000649086006480068FFF7D0FE0020C4E789
:101B6000003C02400838024020C400086400002005
:101B70005C0000200F2202600C4A136803F003038C
:101B80004360136803F0F0038360136803F4E053C9
:101B9000C36012684FF4E05303EAD20202610448C2
:101BA000006800F007000860704700000838024035
:101BB000003C02400448054900680968044AC1F332
:101BC0008221515CC8407047640000200838024000
:101BD00030C400080448054900680968044AC1F394
:101BE0004231515CC8407047640000200838024010
:101BF00030C40008154810B5006810F00C021448F5
:101C000013D04110042A0FD0082A0ED10F4C241FE4
:101C10002268236802F03F025B0207D52068C0F308
:101C20008810A0FB010106E0084610BD2168C1F341
:101C30008811A1FB00010023FEF724FB2168C1F3FA
:101C40000141491C4900B0FBF1F010BD08380240C9
:101C50000024F4002DE9F84F04006ED02078DFF85E
:101C60004C93C007A9F104054AD009F104000168AA
:101C7000C1F38101012908D00068C0F38100022866
:101C80000AD1D9F80000400206D52868800337D56C
:101C900060680028E1D033E06068B0F5803F10D084
:101CA000B0F5A02F286810D020F480302860286874
:101CB00020F4802028606068A8B1FFF7CBFB0646BF
:101CC0000DE0286840F48030F4E740F4802028607C
:101CD000F7E700BFFFF7BEFB801B642873D82868B6
:101CE0008003F7D50CE0FFF7B5FB064605E000BF23
:101CF000FFF7B0FB801B6428F0D828688003F7D476
:101D00002078DFF8AC8280074FF0000A3ED5A74864
:101D1000001D016811F00C0F08D00068C0F38100AD
:101D200002280BD1D9F80000400207D428688007A8
:101D300016D5E068012800D112E033E1E068B8B1BF
:101D40000120C8F80000FFF785FB064605E000BF4C
:101D5000FFF780FB801B0228C0D828688007F7D5D2
:101D60002868216920F0F80040EAC10028600DE0F1
:101D7000C8F800A0FFF76EFB064604E0FFF76AFB19
:101D8000801B02281FD828688007F7D42078000716
:101D900022D5864F87486169703771B10121016092
:101DA000FFF758FB064604E0FFF754FB801B0228B0
:101DB00009D838688007F7D50EE0C0F800A0FFF713
:101DC00049FB064605E082E0FFF744FB801B022842
:101DD0007DD838688007F7D42078400768D5DFF8C9
:101DE000CCB100270BF13C0BDBF80000C0000BD49A
:101DF000DBF8001041F08051CBF80010DBF8000058
:101E0000012700F0805000906B4E3068C00510D460
:101E1000306840F480703060FFF71CFB009005E0F4
:101E2000FFF718FB0099401A022850D83068C00507
:101E3000F6D55E4EA0686C3601280FD005283068B4
:101E400010D020F001003060306820F004003060D5
:101E5000A068B8B1FFF7FEFA00900FE0306840F0DC
:101E60000100F4E740F004003060F7E7FFF7F2FA12
:101E70000099411A41F28830814266D83068800763
:101E8000F4D50EE0FFF7E6FA009007E0FFF7E2FA7C
:101E90000099411A41F28830814256D83068800753
:101EA000F4D42FB1DBF8001021F08051CBF80010F2
:101EB000A069C8B33D49091D0968C1F38101022920
:101EC0004AD00228504607D0C8F8600000E03CE045
:101ED000FFF7C0FA04463BE04746C8F86000FFF74A
:101EE000B9FA064605E000BFFFF7B4FA801B0228E6
:101EF0002BD828688001F7D4D4E907010843A16AE8
:101F00002E4A490802EB0141626A41EA8211084304
:101F100094F82C1040EA0161C9F8001001203866DD
:101F2000FFF798FA044606E03EE000BFFFF792FA9A
:101F3000001B022809D828688001F7D534E000BFCB
:101F4000FFF788FA001B022802D90320BDE8F88FAA
:101F500028688001F4D427E00128F7D0D9F80000E0
:101F6000E26900F4800191421CD1226A00F03F0135
:101F7000914217D147F6C071626A0140B1EB821FEE
:101F800010D1A26A4FF0FF3300F4403103EB52024C
:101F9000B1EB024F06D194F82C1000F07060B0EB5A
:101FA000016F01D00120D1E70020CFE704380240C3
:101FB00000004742800E4742007000400000FFFFD3
:101FC0007047704770B590F83C20012A32D0012448
:101FD00080F83C40022280F83D2003685A689D68E2
:101FE00022F070060A6832435A60134B02689A4224
:101FF00014D0B2F1804F11D0104B9A420ED0104B3A
:102000009A420BD00F4B9A4208D00F4B9A4205D000
:102010000E4B9A4202D00E4B9A4204D1496825F0E9
:1020200080031943916080F83D40002180F83C1006
:10203000084670BD022070BD000001400004004051
:1020400000080040000C0040000401400040014036
:102050000018004010B5040003D094F83D0010B102
:1020600007E0012010BD002084F83C00204600F06D
:102070001FF8022084F83D00211D206801F040FE79
:10208000012084F8460084F83E0084F83F0084F87C
:10209000400084F8410084F8420084F8430084F84A
:1020A000440084F8450084F83D00002010BD000085
:1020B00008B501681048B1F1804F14D00F4A914221
:1020C00019D1016841F0100101600068002200F0A0
:1020D0001000009005213620FFF780FCBDE8084085
:1020E0003620FFF76DBC016841F001010160006816
:1020F00000F00100009008BD403802400010004090
:1021000090F83D10012901D001207047022180F88C
:102110003D100168CA6842F00102CA6000681149B6
:10212000884214D0B0F1804F11D00F4988420ED0B0
:102130000E4988420BD00E49884208D00D4988428A
:1021400005D00D49884202D00C49884204D18168EB
:1021500001F00701062903D0016841F00101016087
:1021600000207047000001400004004000080040CB
:10217000000C0040000401400040014000180040F5
:1021800070B5044690F83C000025012817D00126C0
:1021900084F83C60022084F83D002068826822F0C8
:1021A000770222F47F4282600868502838D00DDC24
:1021B00020284FD005DC90B3102811D14AE002202E
:1021C00070BD302846D040280AD13BE060282FD08F
:1021D00070280DD0B0F5805F03D0B0F5005F12D04D
:1021E000012584F83D60002084F83C00284670BD3D
:1021F000CB68D1E90121206801F0FBFD20688168EE
:1022000041F0770109E0CB68D1E90121206801F0B4
:10221000F0FD2068816841F480418160E1E719E0C8
:10222000CA684968206801F0B9FE5021206806E0BC
:10223000CA684968206801F0C2FE6021206801F088
:10224000E2FDCEE7CA684968206801F0A7FE402198
:102250002068F4E7226801461046F0E770472DE950
:10226000F04104460068C66805694FF00007A907F9
:1022700013D5B10711D5F91E01610120207720681F
:1022800080698007204602D0FFF7E8FF04E000F0F5
:10229000BBF8204600F04DF92777680716D5700780
:1022A00014D521686FF004000861022020772068AF
:1022B000806910F4407F204602D0FFF7CFFF04E092
:1022C00000F0A2F8204600F034F92777280715D54A
:1022D000300713D521686FF00800086104202077CB
:1022E0002068C0698007204602D0FFF7B7FF04E0EE
:1022F00000F08AF8204600F01CF92777E80616D58A
:10230000F00614D521686FF01000086108202077CE
:102310002068C06910F4407F204602D0FFF79EFF7E
:1023200004E000F071F8204600F003F92777E80791
:1023300008D0F00706D021686FF001000861204640
:1023400000F09AF9280608D5300606D521686FF006
:10235000800008612046FFF733FE680608D5700646
:1023600006D521686FF040000861204600F08EF924
:10237000A8060AD5B00608D521686FF020000861CC
:102380002046BDE8F041FFF71CBEBDE8F08100002B
:1023900070B586B0044614216846FDF7BDFF20687D
:1023A000B0F1804F27D115480024016841F00101A8
:1023B0000160016801F001010591016841F002012D
:1023C00001600068022500F0020005902C200090BA
:1023D000CDE901540126CDE9034669460848FEF7D8
:1023E00033FF08200090CDE90154CDE9034669464A
:1023F0000448FEF729FF06B070BD000030380240E7
:102400000000024000040240704770B5044690F896
:102410003C0000260D4601280FD0012084F83C0026
:102420006AB1042A1DD0082A2FD00C2A3FD00126D9
:10243000002084F83C00304670BD022070BD20684A
:1024400001F0EAFC2068816941F00801816120689F
:10245000816921F004018161206881692A69114341
:1024600011E0206801F008FD2068816941F40061F5
:1024700081612068816921F48061816120688169BE
:102480002A6941EA02218161D2E7206801F02AFD30
:102490002068C16941F00801C1612068C16921F06B
:1024A0000401C1612068C1692A69114311E02068F3
:1024B00001F04CFD2068C16941F40061C1612068F0
:1024C000C16921F48061C1612068C1692A6941EA5A
:1024D0000221C161ACE710B5040003D094F83D00BF
:1024E00010B107E0012010BD002084F83C00204618
:1024F00000F01EF8022084F83D00211D206801F044
:10250000FFFB012084F8460084F83E0084F83F0079
:1025100084F8400084F8410084F8420084F84300C5
:1025200084F8440084F8450084F83D00002010BD84
:102530007047704710B50446022249B104290ED0F5
:10254000082913D094F84100012816D0012010BDAD
:1025500094F83E000128F9D184F83E200FE094F869
:102560003F000128F2D184F83F2008E094F84000B1
:102570000128EBD184F8402001E084F841200122B9
:10258000206801F029FC16492068164A884201D0CB
:10259000904203D1436C43F4004343642068884273
:1025A00013D0B0F1804F10D00F4988420DD00F49A1
:1025B00088420AD00E49884207D0904205D00D4982
:1025C000884202D00C49884204D1816801F0070199
:1025D000062903D0016841F001010160002010BD0F
:1025E00000000140000401400004004000080040D9
:1025F000000C0040004001400018004030B5044687
:102600000D460068002201F0E7FB194B41F2111161
:1026100020688A10984202D0164B984209D1036A6A
:102620000B4206D1036A134203D1436C23F40043E7
:1026300043642068036A0B4206D1016A114203D148
:10264000016821F00101016001203DB1042D08D095
:10265000082D09D084F84100002030BD84F83E00E8
:10266000FAE784F83F00F7E784F84000F4E7000059
:10267000000001400004014000680349884201D184
:10268000FFF71AB97047000000000140704770B5AD
:10269000040004D094F84100002510B106E00120A8
:1026A00070BD84F84050204600F024F8242084F8BF
:1026B00041002068C16821F40051C160204602F049
:1026C0004DFE2068016921F4904101612068416953
:1026D00021F02A0141612068C16841F40051C160C4
:1026E0006564202084F8410084F84200656300207E
:1026F00070BD000010B586B0044614216846FDF791
:102700000BFE14492068884221D113480021026839
:1027100042F010020260006800F0100005900E48C0
:102720001438026842F001020260006800F0010003
:1027300005904FF4C06000900220CDE90101032014
:1027400003900720049069460448FEF77DFD06B01B
:1027500010BD00000010014044380240000002405B
:102760002DE9F05F054600680E46074605F0BCFB04
:10277000C6EB061140074FF007084FF0040905EBC0
:10278000810401D5484633E03146286805F0ACFBAA
:10279000C0054FF0080A08D507EB46114FF48070CA
:1027A000C1F8080584F84DA028E03146286805F0F6
:1027B0009BFB000705D507EB4611C1F808A50620CD
:1027C0000CE03146286805F08FFB400509D507EB82
:1027D00046114FF48060C1F80805092084F84D00C7
:1027E0000CE03146286805F07FFB00060AD5802002
:1027F00007EB4611C1F8080584F84D80314628687A
:1028000005F0C3F83146286805F06EFB800528689E
:10281000314604D505F0B9F84FF4007059E105F0E0
:1028200063FBC0074FF0200B4FF0010A4FF0000888
:102830004ED007EB4617C7F808B5E07E012807D150
:1028400084F81B80D7F8040520F48030C7F804050D
:10285000A87930B1206BD7F81015C1F31201401AD6
:10286000A06384F84DA0C4F844805246C7F808A578
:1028700094F8260030B1022804D003280AD0012899
:1028800008D013E03146286805F07FF81020C7F81B
:1028900008050BE0D7F8000540F00050C7F8000528
:1028A00084F84C2031462846FEF761FEA8790128BD
:1028B00007D1208DA16B0144491EB1FBF0F0C00788
:1028C00004D014F83C0F80F001002070BDE8F09FA8
:1028D0003146286805F008FB80060CD507EB461149
:1028E000C1F808B5A07E0128F0D184F81BA0032010
:1028F00084F84D00B4E03146286805F0F5FA800709
:102900004FF0050B75D507EB46100221C0F80815EE
:1029100094F84D20012A16D0062A19D0072A1CD077
:10292000092A1AD0052A33D0032A63D0042A7DD07D
:10293000082A7ED0022AC9D094F84C203146284675
:10294000FEF715FEC2E784F84D1084F84CA0F3E7BB
:1029500084F84D1084F84CB0EEE784F84D10626CAA
:10296000521C6264022A10D9C4F84480A27E4146F7
:10297000012A07D1E1762177D0F8041521F48031BE
:10298000C0F8041584F84C90D6E784F84C1022E087
:1029900084F84D10E27E012ACED194F82620032A35
:1029A000F3D1A26C521CA264022A11D9C4F8488047
:1029B00084F81B80616C032901D284F81CA0D0F834
:1029C000041521F48031C0F8041584F84C9002E01D
:1029D00084F84C10B0E794F8261009B10229ABD165
:1029E000D0F8001521F0804141F00041C0F80015F9
:1029F000A2E724E084F84D10E27E012A9CD184F8FD
:102A00004C10D0F8041541F48031C0F80415D0F80A
:102A10000C1541F04001C0F80C15D0F80C1521F050
:102A20002001C0F80C15D6E700E002E084F84D1054
:102A3000ABE784F84D10606C401C6064A2E731463F
:102A4000286805F051FA400610D507EB46114020E2
:102A5000C1F8080584F84DB0A07E08B9C4F84480D8
:102A600031462868BDE8F05F04F08FBF3146286822
:102A700005F03AFAC0067FF565AF94F82600032802
:102A800003D028B1022803D00FE0C4F8448006E048
:102A9000C4F84480A87910B1E07E012818D184F8E8
:102AA0004D903146286804F070FFE07E01280FD178
:102AB00007EB461084F81B80D0F8041521F4803110
:102AC000C0F80415D0F80C1541F02001C0F80C1521
:102AD000102007EB4611C1F80805F7E62DE9F05F75
:102AE000054600680F46064605F0FEF9C7EB0711DC
:102AF00040074FF0040A05EB810405D506EB4711AA
:102B0000C1F808A5072089E03946286805F0ECF9E6
:102B100080064FF000084FF001094FF0020B28D556
:102B200006EB47112020C1F80805607E0326012826
:102B300009D184F8198084F84CB084F84D60394686
:102B4000286804F022FFA07E012810D1E07E002832
:102B50000DD194F82600012801D084F81B9084F848
:102B60004D603946286804F010FFC4F84480BDE881
:102B7000F09F3946286805F0B7F9800506D506EBC1
:102B800047114FF40070C1F8080549E0394628683C
:102B900005F0AAF9C00720D0C4F844803946286857
:102BA00005F0A2F9400606D506EB471184F8199006
:102BB0004020C1F80805E07E48B106EB471084F8D4
:102BC0001B80D0F8041521F48031C0F8041506EB01
:102BD00047114846C1F8089520E03946286805F0B5
:102BE00083F940060ED5052084F84D00A07E08B973
:102BF00084F81990C4F844803946286804F0C5FE6A
:102C0000402028E03946286805F06EF900070DD508
:102C100006EB47110820C1F80805062084F84D008E
:102C200039462868BDE8F05F04F0AFBE3946286831
:102C300005F05AF9C00613D5C4F8448084F84DA0B5
:102C4000607E18B9207E08B984F819903946286842
:102C500004F09BFE102006EB4711C1F8080586E73B
:102C60003946286805F040F9000626D5A87970B1E4
:102C7000606C401C6064022811D9C4F8448052463C
:102C800084F84CA039462846FEF771FC13E0072073
:102C900084F84D003946286804F077FE0BE006EB17
:102CA000471084F84CB0D0F8001521F0804141F075
:102CB0000041C0F800158020CDE73946286805F0AE
:102CC00013F9400509D5092084F84D0039462868D4
:102CD00004F05BFE4FF48060BDE73946286805F0DC
:102CE00003F98007BBD506EB47125846C2F808B572
:102CF00094F84D10012917D003293AD004293ED069
:102D000005294CD006294DD0072901D00929A6D183
:102D100084F84D00616C491C6164022948D9C4F8EB
:102D2000448084F84CA04DE084F84D0084F84C9029
:102D300094F82600022801D0032843D1A87928B9A5
:102D400094F83D0080F0010084F83D00A879012846
:102D500038D1606B10B3218D0844401EB0FBF1F0F8
:102D6000C0072FD094F83D0080F0010084F83D00AA
:102D700028E084F84D00E17E012916D022E084F895
:102D80004D0084F84C00E07E01281BD184F81B80A4
:102D9000D2F8040520F48030C2F8040512E084F86B
:102DA0004D0002E084F84D00052084F84C0009E055
:102DB00084F84C00D2F8000520F0804040F000403C
:102DC000C2F8000594F84C2039462846FEF7CFFBA0
:102DD000CDE67CB504680546D4F840040190D4F8EB
:102DE000400420F02E0000900198800709D501983A
:102DF000C00702D02846FEF733FB009840F00200DF
:102E000000900198000724D5009840F00800009039
:102E1000019840071AD5687A022803D0E87901287A
:102E20000CD00FE00198C0F341400228286803D07D
:102E3000012105F03DF805E00221FAE74EF6602099
:102E4000C4F804042846FEF703FD02E02846FEF716
:102E5000FBFC01988006009802D540F0200000900D
:102E6000C4F840047CBD2DE9F041024600680646E6
:102E7000016AC1F3434301F00F07C1F30A15022BA6
:102E80002ED1002D2CD0C7EB071102EB8104E16A93
:102E9000002925D0A26B636B2A449A4222D82A4685
:102EA00005F02EF8E06A2844E062A06B2844A06395
:102EB00006EB4710D0F81015228DC1F3C941AA4284
:102EC0000ED100290CD0D0F8001521F0804141F03E
:102ED0000041C0F8001514F83C0F80F0010020708C
:102EE000BDE8F081042084F84C00F9E7FEE700001B
:102EF0007CB50D460021144647F6FF73412829D0C2
:102F000007DC98B1012816D0082819D0092808D163
:102F10001BE0422823D0432826D0442829D0452826
:102F20002CD0CDE90031102319A22BE0CDE90031DE
:102F300010231AA226E0CDE90031102319A221E0C6
:102F4000CDE90031102319A21CE0CDE90031102396
:102F500018A217E0CDE90031102318A212E0CDE944
:102F60000031102317A20DE0CDE90031102317A284
:102F700008E0CDE90031102317A203E0CDE90031CC
:102F8000102318A22146284600F0ECFB7CBD00006F
:102F9000CEDED0A7D7B4CCAC00000000CAA7C4DCFA
:102FA00000000000CAB9C4DC00000000B3ACD1B915
:102FB00000000000C7B7D1B900000000B9FDB5E7B7
:102FC000C1F700004D4F53B9FDCEC200CFDFC8A6F8
:102FD000B9FDCEC200000000CDA8D1B6B6AACAA7DE
:102FE00000000000B9FDD4D8000000007CB51446F4
:102FF0000D4620B14FF4FC614FF6FF7002E04FF236
:10300000DE710020CDE90001102303A221462846ED
:1030100000F0A8FB7CBD0000CAB9C4DC00000000C1
:103020007CB50D4614464FF6FF7101280BD00028E1
:1030300008D11F20102306A2CDE900102146284602
:1030400000F090FB7CBD4FF4FC60102303A2F3E77B
:10305000C6C1C4BBBFD8D6C600000000CAD6B1FAEC
:10306000BFD8D6C6000000007CB50D46002114462E
:1030700047F6FF73B0F5397F04D2CDE90031102354
:1030800008A209E0CDE90031B0F53E7F4FF0100312
:1030900001D906A200E007A22146284600F062FB03
:1030A0007CBD0000B7B4D7AA00000000D5FDD7AAA8
:1030B00000000000CDA3D6B9000000007CB5144686
:1030C0000D4601280CD0002809D148F23041CDE945
:1030D0000001102305A22146284600F043FB7CBDD9
:1030E0004FF4FC614FF6FF70F1E70000B7A2CBCDC3
:1030F000000000002DE9F843054698B2009001F168
:10310000080083B2164605F1080082B20C46A1F110
:10311000080081B2A5F1080080B200F07FF8B6B2D5
:10312000AF1DA5F106082346BAB21FFA88F019466A
:10313000009600F059FA601C83B281B2BAB21FFA4D
:1031400088F0009600F050FAA71DA4F106082A4660
:10315000BBB21FFA88F11046009600F045FA6D1CCC
:10316000BBB2AAB21FFA88F1A8B2009600F03CFAEE
:10317000BDE8F883F8B5044698B2009001F1080064
:1031800083B2164604F1080082B20D46A1F1080090
:1031900081B2A4F1080080B200F040F8B7B2A61DD9
:1031A000A41F2B46B2B2A0B21946009700F01CFA39
:1031B0006D1CABB2B2B2A9B2A0B2009700F014FA83
:1031C000F8BDF8B50546540820449EB282B2281BCB
:1031D0000F4680B20B46009600F006FA381983B20B
:1031E000381B81B22A461046009600F0FDF9F8BD62
:1031F00030B5094C2A232380050AA31C1D80C0B2C8
:1032000018802B202080080A1880C8B218802C2033
:1032100020801A8030BD0000FEFF01602DE9F05FC4
:103220008346A2EB0B00DFF840A0401C1E460C4674
:1032300085B24FF02C090AF102080A9F0FE02146DF
:10324000584608F0BDF8AAF800900020414602E078
:103250000F80401C80B2A842FAD3641CA4B2B442CE
:10326000EDD9BDE8F09F0000FEFF0160F0B500253C
:10327000174C059E28E000BF154F4FF02A0CBF1ECB
:10328000A7F800C04FEA102CA4F800C020804FF02F
:103290002B0CA7F800C001EB050C4FEA1C2EA4F87C
:1032A00000E0A4F800C04FF02C0CA7F800C00027E5
:1032B00006E000BF36F802CBA4F800C07F1CBFB206
:1032C0009742F7D36D1CADB29D42D5D3F0BD00003F
:1032D000000002602DE9F04387B0142101A8FDF73A
:1032E0001BF8B14F0020F871B0480068AF4940F0BA
:1032F0001F0008604FF400480120CDE901800390D1
:103300000320DFF8AC92049001A94846FDF79CFF2A
:103310004CF6B3700190022002900120039003202C
:1033200004900C20059001A9A248FDF78DFF4FF6EF
:1033300080700190022002900120039003200490ED
:103340000C20059001A99C48FDF77EFF97480830A6
:10335000006840F001019548083001604FF02045B9
:10336000002028606860C5F80401286840F4805097
:103370002860286840F480402860286840F01000E9
:10338000286068686860686840F00F006860686876
:1033900040F470506860D5F80401C5F80401D5F810
:1033A000040140F00900C5F80401D5F8040140F417
:1033B0000060C5F80401286840F001002860322050
:1033C00006F0D0FC7D4E00203080B41C20803220DE
:1033D00006F0C8FC002007F055FED320308020887E
:1033E00020882088B88080B24FF6FF7101EA002162
:1033F00020880143B98072A005F0CCFDD5F8040106
:1034000020F00F00C5F80401D5F8040140F4007065
:10341000C5F80401D5F8040120F47060C5F8040172
:10342000D5F8040140F00300C5F80401CF20308036
:1034300000202080C122228030202080ED21318098
:10344000642121800321218012212180812121807A
:10345000E821318085212180102121807A23238059
:10346000CB233380392323802C2323800023238004
:103470003423238002232380F723338020232380D7
:10348000EA233380002323802380C02333801B233F
:103490002380328001222280C52232802080208039
:1034A000C7203080B7202080362030804820208000
:1034B0003A20308055202080B120308000202080AC
:1034C0001A202080B62030800A232380A22020806A
:1034D000F2203080002020802620308001202080B3
:1034E000E02030800F2020802A222280282525807D
:1034F000082525804FF00E0CA4F800C02580542527
:103500002580A92525804325258023802080002330
:103510002380238023802380E123338000232380A2
:10352000152323801723238007232380112323803F
:10353000062525802B2525804FF0560CA4F800C0C9
:103540004FF03C0CA4F800C04FF0050CA4F800C0EC
:10355000218020803F212180218020803580002013
:103560002080208001202080218032800020208047
:1035700020802080EF2020803380782006F0F2FB2E
:1035800029203080002000F09FF8002000907B88E8
:103590003A880146FFF742FEC9F818800120F87109
:1035A00007B0BDE8F0830000580100203038024029
:1035B00000000240000C024000100240FEFF0160CB
:1035C000CFD4CABEC6C1BCECB2E22020202020204D
:1035D000202020202020202020D0BEC6AC49443A04
:1035E0002025780D0A0000002DE9FE4F161ACDE9BE
:1035F00000104FF000085D1A47464FF0FF30002ED4
:1036000002DD4FF0010102E003D14FF000018B46D3
:1036100002E08346C6F10006002D02DD4FF00100F6
:1036200002E003D14FF00000824602E08246C5F17D
:103630000005AE4201DD344600E02C46601C4FF030
:103640000009029019E000980C9A81B2019880B2AA
:10365000FFF7CEFDB0442F44A04504DD0198A8EB50
:10366000040858440190A74203DD00983F1B5044D2
:10367000009009F101001FFA80F902998945E2DD05
:10368000BDE8FE8F2DE9F8411E46079C1746884687
:1036900005460B460094FFF7A7FF3A4633464146DE
:1036A00010460094FFF7A0FF33463A4619462846D5
:1036B0000094FFF799FF2A4633464146104600948E
:1036C000FFF792FFBDE8F88170B50023F02423498D
:1036D0004FF4A0751A46012803D078B103280DD005
:1036E00000E0062001268E710D804C8078B1032801
:1036F00008D0052808D0062808D008E08A710C8078
:103700004D80F3E7C02302E0602300E0A02343F0F4
:103710000804134B36201880981C0480A4060C88DB
:103720004D8802D5AC4202D303E0AC4201D90D80F2
:103730004C802A241C80028002800C88641E250A8A
:103740000580E4B204802B241C800280028049881A
:10375000491E0A0A0280C9B2018070BD58010020CA
:10376000FEFF01602DE9FC5FDFF880800546DDE9A2
:103770000CBA98F807001C4616460F46002833D0AE
:10378000A9460C2C2DD0102C2BD0182C29D0202C55
:1037900027D0182425E000BFB8F80010091BA94263
:1037A00002DA39194D468FB2B8F80200001BB84250
:1037B0001ADB7F2A23460AD239462846CDE900ABD8
:1037C00006F070FC05EB540085B2761C09E0324629
:1037D00039462846CDE900AB06F0D6FC281985B25B
:1037E000B61C3278002AD7D1BDE8FC9F58010020D2
:1037F0000F4810B50D4901600221416000214FF4CE
:1038000070228160C0E903124FF4401242610176D8
:1038100041768176C17601774177FDF7B0FB0028CC
:1038200003D0BDE81040FDF719B910BD0064004099
:10383000DC0300207CB50C480024CDE90040234681
:1038400080220AA10E4808F031FC074D00232D1FED
:103850008022286105F10800CDE9004009A10E4849
:1038600008F024FC28617CBD48000020436F6D6D8A
:10387000756E69636174696F6E5461736B000000EB
:1038800091090008546F7563685F4D616E616765EB
:103890005461736B00000000E53F00082DE9F04122
:1038A00086B014216846FCF737FD394800240168CA
:1038B00041F080010160016801F08001059101681B
:1038C00041F001010160016801F001010591016809
:1038D00041F004010160016801F0040105910168F3
:1038E00041F00201016000682A4E00F002000590DC
:1038F000012220213046FDF7A7FDDFF89C80002241
:1039000004214046FDF7A0FD01254FF48810CDE9C4
:1039100000500220214F029069463846FDF794FC82
:10392000122000904FF40410CDE901056946384695
:10393000FDF78AFC20200090CDE90154694630460D
:103940000394FDF781FC04200090CDE90154694601
:1039500040460394FDF778FC002205210620FEF77F
:103960003DF80620FEF72CF8002205210720FEF77F
:1039700035F80720FEF724F8002205210A20FEF77B
:103980002DF80A20FEF71CF806B0BDE8F081000013
:1039900030380240000802400004024000000240AB
:1039A00010B58EB000240794089409940A940B94DF
:1039B0001C2168460C94FCF7AFFC2A484FF080416C
:1039C0000160A721C0E9011440F2CF71C0E90314DE
:1039D0008461FEF73FFB08B1FDF740F84FF48050DB
:1039E000079007A91F48FEF7CBFB08B1FDF736F893
:1039F0001C48FEF770FD08B1FDF730F80B940BA9D9
:103A000018480C94FEF7DEFA08B1FDF727F860209D
:103A1000CDE9000402940022694612480494FEF79E
:103A2000F4FC08B1FDF71AF8042269460D48FEF7C8
:103A3000ECFC08B1FDF712F8082269460948FEF7C8
:103A4000E4FC08B1FDF70AF80C2269460548FEF7C8
:103A5000DCFC08B1FDF702F80248FEF799FC0EB055
:103A600010BD0000040400201CB500240F48009481
:103A70000D4901940160A721C0E9011444F61F61BA
:103A8000C16080218161FEF7E5FA08B1FCF7E6FF2D
:103A90000094694605480194FEF794FA002801D085
:103AA000FCF7DCFF1CBD0000001000404C040020AF
:103AB0000C4810B50A4901604FF4E1314160002122
:103AC00081600C22C160C0E904128161C161FEF70E
:103AD000DEFD002803D0BDE81040FCF7BFBF10BDDD
:103AE000001001409404002010B501220F49104835
:103AF00003F03AF808B1FCF7B1FF0E490C4803F0A7
:103B000069FD08B1FCF7AAFF0B49094803F062FD03
:103B100008B1FCF7A3FF064803F040FE002803D0DD
:103B2000BDE81040FCF79ABF10BD0000B177000857
:103B30007C8900200C0100202C010020FEE7000001
:103B400008B508F019FB00900F4800F5887500F5DE
:103B5000087600F54C740C490C4806F049F92946E2
:103B60000A4806F045F9012007F058FD314607489C
:103B700006F03EF92146054806F03AF9022168466A
:103B800007F072FDE7E70000DC7E0020DC03002088
:103B9000FEE700000148FDF73BBD00006C8F0020F0
:103BA00010B5502080F31188BFF34F8FBFF36F8F94
:103BB00008F0E8FA18B104494FF08050086000207E
:103BC00080F3118810BD000004ED00E030B593B023
:103BD00030216846FCF7A0FB14210CA8FCF79CFBE5
:103BE0001D480025016841F080510160006800F027
:103BF000805011901948016841F4804101600068CB
:103C0000022400F4804011900120009000040190F3
:103C10008001CDE9064004200890A820CDE90904E0
:103C200007200B906846FEF715F808B172B6FEE75C
:103C30000CA90F2081E831004FF4A0500F904FF4F1
:103C40008050109005210CA8FDF7FAFE002801D045
:103C500072B6FEE713B030BD40380240007000403D
:103C600070B5194C2068194A10F00C01184804D09E
:103C70005510042903D0082903D002601BE0056019
:103C800019E01149091F0B68C3F380560B6803F054
:103C90003F0316B1B5FBF3F201E0B2FBF3F20B68A0
:103CA0000968C3F388135A43C1F30141491C490011
:103CB000B2FBF1F101602168064AC1F30311515CC6
:103CC0000268CA40026070BD083802400024F40057
:103CD0006400002020C400080248016841F470011B
:103CE0000160704788ED00E00148FEF7B8BA0000B7
:103CF000DC0400200148FEF7B2BA00004C040020AA
:103D0000F0B50268294C2A4D2A4E2B4F2B4B4FF011
:103D1000804CA04209D0604507D0A84205D0B042EF
:103D200003D0B84201D0984204D122F0700E4A6804
:103D300042EA0E02A0421BD0604519D0A84217D01B
:103D4000B04215D0B84213D0984211D01C4DA842B1
:103D50000ED01C4DA8420BD01B4DA84208D01B4DC5
:103D6000A84205D01A4DA84202D01A4DA84203D14C
:103D700022F44075CA682A434D6922F080022A4322
:103D800002608A68C2620A688262A04201D09842D8
:103D900001D109690163012141610169C90703D0AA
:103DA000016921F001010161F0BD00000000014046
:103DB0000004004000080040000C004000040140E6
:103DC000004001400044014000480140001800400C
:103DD000001C00400020004010B501F01F0301212D
:103DE000046A99408C430462016A9A40114301625B
:103DF00010BD10B5846842EA032224F47F440A43CC
:103E00002243826010BD826822F070020A4342F0B1
:103E10000701816070470000F0B5036A026A22F072
:103E20000102026242688469124E24F073050C6834
:103E30002C4323F002058B682B430D4DA84201D083
:103E4000B04205D123F00807CB683B4323F00403BD
:103E5000A84201D0B04205D14D6922F44072154309
:103E60008A692A4342608461496841630362F0BD04
:103E70000000014000040140F0B5026A036A23F02B
:103E800010030362436884690D6824F4E64444EA3D
:103E900005248D6822F0200242EA05120F4D104ED3
:103EA000A84201D0B04206D1CF6822F0800242EA97
:103EB000071222F04002A84201D0B04207D14D695A
:103EC00023F4406343EA85038D6943EA8503436035
:103ED0008461496881630262F0BD00000000014016
:103EE00000040140F0B5026A036A23F480730362A0
:103EF0004368C46922F4007224F073050C68124E02
:103F00002C438D6842EA05220E4DA84201D0B042F2
:103F100006D1CF6822F4006242EA072222F48062CE
:103F2000A84201D0B04207D14D6923F4405343EA7F
:103F300005138D6943EA05134360C4614968C16391
:103F40000262F0BD000001400004014030B5046A87
:103F5000026A22F4805202624268C3690D6823F447
:103F6000E64343EA05238D6824F4005444EA05340B
:103F7000084DA84202D0084DA84204D14D6922F450
:103F8000804242EA85124260C3614968016404626A
:103F900030BD0000000001400004014010B5036A7C
:103FA000046A24F001040462846924F0F00444EA01
:103FB000021423F00A020A438461026210BD10B5A4
:103FC000036A046A24F010040462846923F0A003E5
:103FD00024F4704444EA023243EA0111826101622E
:103FE00010BD00002DED068BA2B04FF6FF744FF40C
:103FF000A07700213B46F02208460094FFF70EF917
:10400000FB4800903C23982296212D20FFF72EF9A3
:104010000025CDE900540C23F6A240F21D110A2020
:10402000FFF7A0FB4FF6E076CDE9006450210C23AA
:10403000FAA20846FFF796FBCDE900640C23FBA229
:1040400064214420FFF78EFBCDE900541823FCA225
:1040500008212320FFF786FB40F2CF10CDE90004B2
:1040600028211023FAA20846FFF77CFB40F6B8305F
:1040700007F0D4FA00213B46F02208460095FFF7EE
:10408000CDF81823F8A208210A20CDE90045FFF752
:1040900069FBCDE900651823F8A228213A20FFF733
:1040A00061FB48F2304825234646F022194600209D
:1040B000CDF80080FFF798FA2623F0221946002059
:1040C0000096FFF791FA1023EFA248210E20CDE9C8
:1040D0000045FFF747FBF14F48228C213888FEF757
:1040E000C3FF5A23B02246210C200096FFF7CAFADC
:1040F0002346002269211620FFF73CF823460022C0
:1041000069213220FEF7F6FF1023E5A2612150203D
:10411000CDE90045FFF726FBE3484822B5210078AA
:10412000FEF764FF39884FF2DE76A1F50070EE38B5
:1041300006D0CDE9005610236121DCA2B52007E0AE
:104140004FF47840CDE900401023D8A26121B5207A
:10415000FFF708FB3A88BA46D6A102A804F02AFF66
:10416000A946102302AA61217820CDE90045FFF776
:10417000F9FA00214FF6FF70CDE900011023CEA21D
:1041800076210E20FFF7EEFADFF83CB376226E219F
:104190009BF80000FEF7ACFE8823B02274210C20AF
:1041A000CDF80080FFF76EFA58467622B5210078E8
:1041B000FEF71CFF4FF2DE710020CDE90001102355
:1041C000C2A28F21B520FFF7CDFA4FF6FF73002270
:1041D00097211620FEF7CEFF4FF6FF73002297219E
:1041E0003220FEF787FF00214FF6FF70CDE9000176
:1041F0001023B8A28F215020FFF7B4FA9FEDB70B20
:10420000B84853EC102B90ED000B51EC100BFCF761
:1042100035F99FEDB51B53EC112BFCF7A1F941ECDF
:10422000100BB3A153EC102B02A804F0C3FE002125
:104230004FF6FF70CDE90001102302AA8F217820EC
:10424000FFF790FA00214FF6FF70CDE9000110232F
:10425000A9A2A4210E20FFF785FAAA48A4226E2164
:104260000078FEF745FE48F230400090B623B022B9
:10427000A2210C20FFF706FAA248A422B52100785B
:10428000FEF7B4FE4FF2DE710020CDE900011023ED
:104290008EA2BD21B520FFF765FA4FF6FF7300220D
:1042A000C5211620FEF766FF4FF6FF730022C521D9
:1042B0003220FEF71FFF00214FF6FF70CDE900010D
:1042C000102384A2BD215020FFF74CFA9FED830BF1
:1042D0008D4853EC102B90ED000B51EC100BFCF7BC
:1042E000CDF89FED811B53EC112BFCF739F941EC14
:1042F000100B7FA153EC102B02A804F05BFE0021F1
:104300004FF6FF70CDE90001102302AABD217820ED
:10431000FFF728FA00214FF6FF70CDE900011023C6
:104320007AA2D2210E20FFF71DFA7B48D2226E21FD
:104330000078FEF7DDFD48F230400090E423B02223
:10434000D0210C20FFF79EF97348D222B5210078C6
:10435000FEF74CFE4FF2DE710020CDE90001102384
:104360005AA2EB21B520FFF7FDF94FF6FF730022AB
:10437000F3211620FEF7FEFE4FF6FF730022F32115
:104380003220FEF7B7FE00214FF6FF70CDE90001A5
:10439000102350A2EB215020FFF7E4F99FED4F0BC3
:1043A0005E4853EC102B90ED000B51EC100BFCF71A
:1043B00065F89FED4D1B53EC112BFCF7D1F841EC48
:1043C000100B4BA153EC102B02A804F0F3FD0021BD
:1043D0004FF6FF70CDE90001102302AAEB217820EF
:1043E000FFF7C0F900214FF6FF70102398E000009E
:1043F000B8F30008C8E7B9FBB7A2CFD6D7F8B1EA3F
:10440000B2BBB6D4A3ACB0B4CFC2D7F331B0B4BC56
:10441000FCBDF8C8EBD0A3D7BC000000D7F7D5DFB0
:10442000A3BAC1D6B3FEC8BB00000000D6B8B5BC65
:10443000C0CFCAA6A3BAD2B6C4DDBCD1000000006A
:10444000BBF9D3DABBECC1AABBFAB9B9B5C4000059
:10445000B4C5F1EEBACFCBAECFC2CAB8C1BFCDC6DC
:10446000BDF8C6F700000000CBAE20CFC220CAB80E
:1044700020C1BF20CDC620BDF8000000BFD820D687
:10448000C620C3E620B0E500C2DDD0FDBDB0B5E773
:10449000BBFAD7B4CCACA3BA000000000A000020DD
:1044A00050574D3A0000000004000020B8B4CEBBC5
:1044B0000000000025640000BBF9B5E7BBFAD7B4E3
:1044C000CCACA3BA0000000005000020B4E6C1E3B4
:1044D00000000000504F533A0000000000000000B0
:1044E000008066402000002000000060B81E0940E7
:1044F00025332E3166000000B9D8BDDA31D7B4CCEF
:10450000ACA3BA000600002028000020B9D8BDDA0C
:1045100032D7B4CCACA3BA00070000203000002092
:10452000CDE90001FDA219010E20FFF71BF9FE489D
:104530004FF480726E210078FEF7DAFC48F23040CA
:1045400000904FF48973B022FE210C20FFF79AF8F7
:10455000F5484FF48072B5210078FEF747FD002042
:104560004FF2DE711023AFF29C02CDE9000140F260
:104570001911B520FFF7F6F84FF6FF73002240F24D
:1045800021111620FEF7F6FD4FF6FF73002240F2D0
:1045900021113220FEF7AEFD00214FF6FF701023EF
:1045A000AFF2D002CDE9000140F219115020FFF71F
:1045B000D9F81FED360BDD4853EC102B90ED000BB6
:1045C00051EC100BFBF75AFF1FED391B53EC112B6D
:1045D000FBF7C6FF41EC100B53EC102BAFF2F001D0
:1045E00002A804F0E7FC00214FF6FF70CDE90001BE
:1045F000102302AA40F219117820FFF7B3F8CC4833
:104600004FF49772B5210078FEF758FD4FF4FC6126
:104610004FF6FF70CDE900011023C6A24FF4977149
:104620000F20FFF79FF848F230410020CDE900014C
:104630001023C2A24FF497714120FFF793F8DFF8DF
:1046400004834FF49772732198F80000FEF7E8FC9A
:10465000B8EE08AAF0EE08AADFEDBB9ABB4E06F54D
:1046600088701E9006F508701D9006F54C709FED41
:10467000B89A9FEDB88B1C90012006F0CFFF04F094
:1046800013FA00287AD0B54D2878012876D10A206F
:1046900006F0C4FF04F008FA0028F3D04F4685F86E
:1046A000009004F04FF91B9004F052F905460146C2
:1046B0004FF4FC621B98FEF79BFD2B46A8A1AC486B
:1046C0001B9A04F077FCCDE900470C23A84A05218A
:1046D0000820FFF747F81B9FB63F1F2F60D2482DD9
:1046E00020D9582D1ED298F80000D8B9A1480078DA
:1046F00020B1A0480178012908D00DE09D48012192
:1047000001700C219C48FDF715FF05E080F8009032
:104710000C219948FDF772FF96484822B521007890
:10472000FEF764FC612D3BD9712D39D298F8000059
:10473000B0BB40F2EE20AAF80000BAF800108E4894
:1047400000680164BAF80020AFF2982102A804F0D2
:1047500031FCCDE90049102302AA61217820FFF73E
:1047600001F8BAF800004B2809D04FF2DE70102390
:10477000AFF2C822CDE90090612108E0F0E34FF4E8
:1047800078401023AFF2DC22CDE900406121B52052
:10479000FEF7E8FF48228C21BAF80000FEF764FC1F
:1047A0001B980F381F900F2850D2612D4ED9712DB4
:1047B0004CD298F80000E8BBBAF800003238AAF8EA
:1047C0000000BAF800106C48006801641F23002242
:1047D00069211620FEF7CEFC48228C21BAF8000091
:1047E000FEF742FCBAF80010A1F50070EE3808D0D0
:1047F0004FF2DE701023AFF24C32CDE90090612110
:1048000007E04FF478401023AFF26032CDE900406A
:104810006121B520FEF7A6FFBAF80020AFF26C3197
:1048200002A804F0C7FBCDE900491023612102AAC8
:10483000782000E00AE0FEF795FF322006F0EEFE59
:104840002346002269211620FEF794FC1B982B3882
:104850000F2850D2612D4ED9712D4CD298F80000FE
:10486000E8BBBAF800003230AAF80000BAF800102D
:104870004148006801641F23002269213220FEF7AD
:1048800039FC48228C21BAF80000FEF7EDFBBAF89B
:104890000010A1F50070EE3808D04FF2DE70102342
:1048A000AFF2F832CDE90090612107E04FF4784093
:1048B0001023AFF20842CDE900406121B520FEF798
:1048C00051FFBAF80020AFF2144102A804F072FBC5
:1048D000CDE900491023612102AA782000E00AE016
:1048E000FEF740FF322006F099FE234600226921A0
:1048F0003220FEF7FFFB1F2F52D2762D49D9862D8D
:1049000047D298F80000D8BB9BF800000F49002858
:104910001A4846D005F099FAC82032E0B9D8BDDA75
:1049200033D7B4CCACA3BA00080000203800002074
:104930001C000020D2B3C3E6D2BB0000D2B3C3E652
:10494000B6FE000000000020CDCC4C3EDC7E0020F6
:1049500000000000BA168B5CA2B90E404000002097
:10496000583A2533642020593A253364000000006A
:10497000740100200400002004040020DC03002057
:1049800007E006F04BFE7622B5219BF80000FEF70B
:104990002DFB8F2D3CD99F2D3AD298F8000018B1ED
:1049A00036E005F075FAB7E71F201023AFF2E442B6
:1049B000CDE900908F21B520FEF7D4FE96F83C207B
:1049C0003188FE4806F09CFC9FEDFD0BFE4853EC41
:1049D000102B90ED000B51EC100BFBF743FE02D2B5
:1049E00086ED11AA01E0C6ED11AAF84880ED009A03
:1049F00090ED000A322086ED100A06F00FFE10231B
:104A0000AFF23852CDE900948F21B520FEF7AAFE0F
:104A10001F980F2822D28F2D20D99F2D1ED298F8B3
:104A20000000D8B9E94886ED11AA1F2390ED000ACD
:104A30000022972130EE690A80ED000A90ED000A0D
:104A4000162086ED100AFEF795FB322006F0E6FDF3
:104A50002346002297211620FEF78CFB1B982C384A
:104A600020900E2822D28F2D20D99F2D1ED298F86B
:104A70000000D8B9D548C6ED11AA1F2390ED000A51
:104A80000022972130EE290A80ED000A90ED000AFD
:104A9000322086ED100AFEF72DFB322006F0BEFD17
:104AA0002346002297213220FEF724FB1F2F46D2F7
:104AB000A42D15D9B42D13D298F8000080B9C4489C
:104AC00000781E990028BD4812D005F0BEF9C82014
:104AD00006F0A4FDBE48A422B5210078FEF786FAB0
:104AE000BD2D2CD9CD2D2AD298F8000018B126E082
:104AF00005F0CEF9EBE71F201023AFF23062CDE9CD
:104B00000090BD21B520FEF72DFE96F84C21B6F899
:104B10001011AA4806F0F4FBAE4880ED009A90ED23
:104B2000000A502086ED540A06F078FD1023AFF2FB
:104B30006462CDE90094BD21B520FEF713FE1F98F5
:104B40000F282BD2BD2D29D9CD2D27D298F80000C2
:104B500020BBA04890ED000A10EE100AFBF76FFD95
:104B600053EC182BFBF784FCFBF794FD00EE100AC6
:104B700098481F23002280ED000A90ED000AC5210D
:104B800086ED540A1620FEF7F5FA322006F046FDAF
:104B900023460022C5211620FEF7ECFA20980E28A5
:104BA0002BD2BD2D29D9CD2D27D298F8000020BBBE
:104BB000884890ED000A10EE100AFBF740FD53EC18
:104BC000182BFBF7B4FBFBF765FD00EE100A8148DC
:104BD0001F23002280ED000A90ED000AC52186ED1A
:104BE000540A3220FEF786FA322006F017FD2346DB
:104BF0000022C5213220FEF77DFA1F2F46D2D22D8A
:104C000015D9E22D13D298F8000080B972480078C7
:104C10001D990028694812D005F017F9C82006F040
:104C2000FDFC6D48D222B5210078FEF7DFF9EB2DAF
:104C30002CD9FB2D2AD298F8000018B126E005F0F7
:104C400027F9EBE71F211023AFF28072CDE9009125
:104C5000EB21B520FEF786FD96F85C22B6F820120F
:104C6000564806F04DFB5D4880ED009A90ED000A35
:104C7000502086ED980A06F0D1FC1023AFF2B472F2
:104C8000CDE90094EB21B520FEF76CFD1F980F28AD
:104C90002BD2EB2D29D9FB2D27D298F8000020BB71
:104CA0004E4890ED000A10EE100AFBF7C8FC53ECDA
:104CB000182BFBF7DDFBFBF7EDFC00EE100A474875
:104CC0001F23002280ED000A90ED000AF32186EDFB
:104CD000980A1620FEF74EFA322006F09FFC234673
:104CE0000022F3211620FEF745FA20980E282BD239
:104CF000EB2D29D9FB2D27D298F8000020BB37488F
:104D000090ED000A10EE100AFBF799FC53EC182BFB
:104D1000FBF70DFBFBF7BEFC00EE100A2F481F232C
:104D2000002280ED000A90ED000AF32186ED980A3A
:104D30003220FEF7DFF9322006F070FC2346002215
:104D4000F3213220FEF7D6F91F2F62D2B5F5807F0E
:104D500017D9B5F5887F14D298F8000088B9204893
:104D600000781C990028154815D005F06EF8C82069
:104D700006F054FC1A484FF48072B5210078FEF713
:104D800035F9B5F58D7F44D3B5F5947F41D898F8C2
:104D9000000018B13DE005F07BF8E8E71F20102384
:104DA000AFF6D802CDE9009040F21911B520FEF718
:104DB000D9FC96F86C23B6F8301313E0DC0300201E
:104DC0000000000000000000200000200C00002077
:104DD0000600002010000020070000201400002022
:104DE000080000206C4806F08BFA6C4880ED009AB1
:104DF00090ED000A502086EDDC0A06F00FFC10232F
:104E0000AFF63812CDE9009440F21911B520FEF743
:104E1000A9FC1F980F282FD2B5F58D7F2CD3B5F59F
:104E2000947F29D898F8000030BB5C4890ED000AC8
:104E300010EE100AFBF703FC53EC182BFBF718FBE2
:104E4000FBF728FC00EE100A54481F23002280EDD7
:104E5000000A90ED000A40F2211186EDDC0A1620CE
:104E6000FEF788F9322006F0D9FB2346002240F2F3
:104E700021111620FEF77EF920980E282FD2B5F5C5
:104E80008D7F2CD3B5F5947F29D898F8000030BBDE
:104E9000424890ED000A10EE100AFBF7D0FB53ECED
:104EA000182BFBF744FAFBF7F5FB00EE100A3B4822
:104EB0001F23002280ED000A90ED000A40F221112C
:104EC00086EDDC0A3220FEF715F9322006F0A6FB4B
:104ED0002346002240F221113220FEF70BF91F2F4A
:104EE0002BD2B5F5977F28D9B5F59F7F25D298F8B5
:104EF000000010BB2A4F387818B1387801280FD03D
:104F000015E00120387027490023CDE90091802267
:104F100025A1284807F0CAF822490C39086106E0A3
:104F200087F800901F480C38C06806F0E3FB4FF488
:104F30009772B5213878FEF7C1F81B9874383F286E
:104F400020D24FF49777BD421CD9B5F59F7F19D277
:104F500098F80000454620B12878012806D00CE0DA
:104F600010E001202870FEF7BFFD06E085F80090F4
:104F70001148D0F8E80506F0BDFB3A4673212878C1
:104F8000FEF74EF803F090FD00287FF475AB0B4957
:104F900001200870FFF770BBDC0300201800002020
:104FA0001C000020500000204D6F746F725F546130
:104FB000736B0000413B00087C890020400000200A
:104FC000F0B506464B4885B0016841F0100101601C
:104FD00048481438016841F001010160464C002541
:104FE000E56014216846FBF797F94FF4C060009024
:104FF00002200190012002900320039007200490DA
:1050000069463E48FCF720F9012211462520FCF7AD
:10501000E5FC2520FCF7D4FCFEF722FE384F38686B
:10502000400800EE100A3001B8EE401A00EE100AF7
:10503000B8EE400AC1EE000ABCEEE00A10EE100A1B
:1050400080B200EE100AB8EE400A30EEC00AF3EE6D
:10505000000A20EE200ABCEEC00A10EE101A89B237
:1050600041EA0010A060E06840F00400E060E06801
:1050700040F00800E060E06820F48050E0602561C6
:10508000206920F4405020616561606920F0400093
:105090006061606920F080006061E06820F080005D
:1050A000E060E06840F02000E060E06840F0100060
:1050B000E0606FF0F0002060E06840F40050E060D5
:1050C0001049A1F54660416000F5666181600EA05F
:1050D00003F060FFFEF7C4FD1A493868B0FBF1F138
:1050E00019A003F057FF3146204803F053FF05B0E5
:1050F000F0BD0000443802400010014000000240B2
:1051000064000020744E00200D0D0D3D3D3D3D3DE1
:105110003D3D3D3D3D3D202053544D3332463430DE
:1051200037564520CDE2C9E820B3F5CABCBBAFB1C4
:10513000A8B8E6203D3D3D3D3D3D3D3D3D3D3D0D5D
:105140000000000040420F00CFB5CDB3CAB1D6D3A6
:10515000C6B5C2CA202020202020202020202020C8
:10516000202564204D487A0D00000000243B0108F2
:10517000F0B50E4B00224FF4006C16469D680AE015
:105180009C89875C2F55641CA4B29C81644500D126
:105190009E81521C92B28A42F2D30548C168090628
:1051A00003D4C16841F08001C160F0BD1442002009
:1051B000001001402DE9F047264D2868264C0006D6
:1051C0004FF0000705F104064FF4007218D521488E
:1051D0000C300168090613D5E189A3685B5C336074
:1051E000491C89B2E181914200D1E781E189A2891C
:1051F000914203D1016821F080010160BDE8F08790
:105200002868DFF8588080060ED5B8F8060090426E
:1052100003D313A003F0BEFE19E032681B4B1A54EF
:10522000401CA8F80600E9E72868C006E6D52780F4
:10523000914616496068FBF756F8B8F806102180C9
:10524000A8F8067049461148FBF766F828683068E8
:10525000D4E70000004C004044420020D000002071
:10526000BEAFB8E6A3BA5541525434B5A5D6A1BDD8
:10527000D3CAD5C1BFA3ACD2D1B3ACB3F6BDD3CAE8
:10528000D5BBBAB4E6B4F3D0A10D21007448002018
:105290002DE9F041224C2068224D00064FF0000716
:1052A0004FF4007116D5E068000613D5E889AA68A6
:1052B000125C6260401C80B2E881884200D1EF81BC
:1052C000E889A989884203D1E06820F08000E06085
:1052D000BDE8F0812068144E80060CD530898842E4
:1052E00003D312A003F056FE17E061681A4A115466
:1052F000401C3081ECE72068C006E9D52F80884645
:105300000A4615496868FAF7EEFF30892880378128
:1053100041461148FBF700F820686068D8E70000B4
:105320000050004054420020D0000020BEAFB8E63C
:10533000A3BA5541525435B5A5D6A1BDD3CAD5C1DE
:10534000BFA3ACD2D1B3ACB3F6BDD3CAD5BBBAB44C
:10535000E6B4F3D0A10D2100744A002070B50446D4
:1053600000680169E26821F440511143016121693B
:10537000A068E26908436169114308432168CA686B
:1053800049F20C639A430243CA6020684169A269EA
:1053900021F440711143416131492068884202D0B3
:1053A0003049884202D1FCF715FC01E0FCF702FC11
:1053B000E2690023192164253226B2F5004F6268A4
:1053C00028D0A0FB0101930F9200FAF75BFF014682
:1053D000B0FBF5F06FF01802504301EB800006EBD4
:1053E0000010B0FBF5F000F0F002B1FBF5F002EBBD
:1053F0000012B1FBF5F06FF01803584301EB800089
:1054000006EB0010B0FBF5F000F00F00216810442F
:10541000886070BDA0FB010192185B41FAF732FF72
:105420000146B0FBF5F00201B1FBF5F06FF0180397
:10543000584301EB800006EBC000B0FBF5F000F034
:10544000F80002EB4002B1FBF5F0584301EB80009D
:1054500006EBC000B0FBF5F000F00700D6E7000057
:1054600000100140001401402DE9F041244C206857
:10547000244D00064FF0000717D5E068000614D54C
:10548000E889A968095C6160401C80B2E881B0F5D8
:10549000006F00D1EF81E889A989884203D1E068D3
:1054A00020F08000E060BDE8F0812068164E8006A4
:1054B0004FF400710DD53088884203D313A003F058
:1054C00069FD1AE061680F4A60321154401C308057
:1054D000E9E72068C006E6D588460A4609492F80D4
:1054E00060316868FAF7FFFE308828800548378009
:1054F00041466030FAF710FF20686068D3E700008B
:105500000010014014420020D0000020BEAFB8E6D9
:10551000A3BA5541525431B5A5D6A1BDD3CAD5C100
:10552000BFA3ACD2D1B3ACB3F6BDD3CAD5BBBAB46A
:10553000E6B4F3D0A10D21002DE9F047264D2868EF
:10554000264C00064FF0000705F104064FF40072E8
:1055500018D521480C300168090613D5E189A368E4
:105560005B5C3360491C89B2E181914200D1E781E3
:10557000E189A289914203D1016821F08001016093
:10558000BDE8F0872868DFF8588080060ED5B8F8A7
:105590000200904203D313A003F0FCFC19E0326830
:1055A0001B4B1A54401CA8F80200E9E72868C00603
:1055B000E6D52780914616496068FAF794FEB8F858
:1055C00002102180A8F8027049461148FAF7A4FE9B
:1055D00028683068D4E700000044004024420020DE
:1055E000D0000020BEAFB8E6A3BA5541525432B540
:1055F000A5D6A1BDD3CAD5C1BFA3ACD2D1B3ACB3DC
:10560000F6BDD3CAD5BBBAB4E6B4F3D0A10D210020
:10561000744400202DE9F047264D2868264C0006EA
:105620004FF0000705F104064FF4007218D5214829
:105630000C300168090613D5E189A3685B5C33600F
:10564000491C89B2E181914200D1E781E189A289B7
:10565000914203D1016821F080010160BDE8F0872B
:105660002868DFF8588080060ED5B8F8040090420C
:1056700003D313A003F08EFC19E032681B4B1A54BD
:10568000401CA8F80400E9E72868C006E6D5278092
:10569000914616496068FAF726FEB8F80410218092
:1056A000A8F8047049461148FAF736FE28683068B1
:1056B000D4E700000048004034420020D000002021
:1056C000BEAFB8E6A3BA5541525433B5A5D6A1BD75
:1056D000D3CAD5C1BFA3ACD2D1B3ACB3F6BDD3CA84
:1056E000D5BBBAB4E6B4F3D0A10D210074460020B6
:1056F0002DE9F047264D2868264C00064FF000079C
:1057000005F104064FF4007218D521480C300168E9
:10571000090613D5E189A3685B5C3360491C89B233
:10572000E181914200D1E781E189A289914203D1CF
:10573000016821F080010160BDE8F0872868DFF88A
:10574000588080060ED5B8F80A00904203D313A003
:1057500003F020FC19E032681B4B1A54401CA8F8D7
:105760000A00E9E72868C006E6D527809146164971
:105770006068FAF7B8FDB8F80A102180A8F80A7036
:1057800049461148FAF7C8FD28683068D4E7000098
:105790000014014064420020D0000020BEAFB8E6F3
:1057A000A3BA5541525436B5A5D6A1BDD3CAD5C169
:1057B000BFA3ACD2D1B3ACB3F6BDD3CAD5BBBAB4D8
:1057C000E6B4F3D0A10D2100744C002010B50022E6
:1057D0004FF6FF7300EB8204B4F8904524040BD419
:1057E0009A4207D002F00F0300EB830041F400411E
:1057F000C0F89015D0B210BD521CD2B2102AE9D315
:105800001A46F7E710B501F013FA002010BD8278B0
:10581000012A07D10222027401224274002242822C
:105820008182C2820022114600F00FB87FB51C466B
:10583000012501AE0023009586E80E002A46214688
:1058400001F0DAFA04B0002070BD2DE9F041044601
:105850000125807803262F46012802D002281DD179
:1058600005E0A160A28127760220A0700EE020460C
:1058700000F08AFE050004D0032D02D0022D04D0D2
:1058800004E0A7700020207600E0A770C4F8EC6563
:1058900031460022D4F8E40504F0E8FE2846BDE8CD
:1058A000F0817FB51D4690F81D35089C03B100249A
:1058B0000123CDE90031CDE9022400231A4629460F
:1058C00001F09AFA04B0002070BD1FB50023144601
:1058D000CDE900310822CDE902231A46214601F024
:1058E0008BFA04B0002010BD05F098BE70B50546D7
:1058F000002005F5A76500BF00EB800404EBC004A1
:1059000005EB4404E67B0A348E4201D0FF2909D11D
:10591000A679964201D0FF2A04D1E4799C4206D0B0
:10592000FF2B04D0401CC0B20228E5D3FF2070BD7D
:10593000102907D200EB8100B0F89015C1F30E01D9
:10594000C0F890150020704730B48578029C012D76
:105950000FD141F08001017406214174032142827C
:10596000B1EB122F02D140F2094100E00021818207
:10597000C482224630BC1946FFF767BF0A88037805
:105980001A440A800178084470470000F8B50D46B3
:10599000064600F11C04B1F5807F0AD90DA003F082
:1059A000F9FA0E4803F0F6FA0DA003F0F3FA03201B
:1059B000F8BD23464FF40072002130460095FFF7F2
:1059C000C3FF0028F4D12A4621463046BDE8F840FE
:1059D00001F02DBA4552524F523A2000443C010882
:1059E0000A000000F8B50C460546B1F5806F0AD9EB
:1059F0000EA003F0CFFA0F4803F0CCFA0EA003F08C
:105A0000C9FA0320F8BD05F58E731E464FF4807267
:105A1000002128460094FFF797FF0028F2D1224684
:105A200031462846BDE8F84001F0A6BA4552524F2B
:105A3000523A2000BC3B01080A000000F8B51C46A1
:105A40001646B3F5806F17D8B6B141F4407200F531
:105A50008E731D4600210094FFF776FF002815D1B4
:105A60006978032912D129788A1EA24200D81446E7
:105A70000021A2B2AD1C0FE00AA003F08BFA0B4884
:105A800003F088FA0AA003F085FA0320F8BD6B5CE6
:105A9000891C06F8013B89B29142F8D3002131708C
:105AA000F8BD00004552524F523A2000003C010818
:105AB0000A00000001004FF0000004D0012901D0CD
:105AC000022901D00220704701207047F8B5054631
:105AD000D0F888050126C4696079062864D2DFE819
